S02200004652454552544F535F4F4C45445F576972656C6573735F5769702E73726563D9
S11300004861002029280000252800002528000038
S113001000000000000000000000000000000000DC
S1130020000000000000000000000000B1290000F2
S11300300000000000000000192A00005D2A0000F2
S11300402528000025280000252800002528000078
S1130050252800002528000025280000CD130000D5
S1130060DD130000ED130000FD1300000D1400006B
S11300701D14000025280000252800002528000064
S11300802528000025280000252800002528000038
S11300902528000025280000252800002528000028
S11300A02528000010B5064C2378002B07D1054BFA
S11300B0002B02D0044800E000BF0123237010BDD0
S11300C024000020000000005450000008B5084B34
S11300D0002B03D00748084900E000BF0748036825
S11300E0002B00D108BD064B002BFBD09847F9E745
S11300F0000000005450000028000020545000006C
S113010000000000F0B585B001900E1C029203932C
S11301100A4D0B4C281C211C01220A4FB847019898
S1130120311C029A039B084EB047061C281C211C54
S11301300022B847301C05B0F0BDC046184100206D
S11301402041002021170000191A000010B58EB0BC
S1130150244C1123237000236370A3700122694689
S11301604A708B700A7011201F4B98472378D90965
S11301700022002904D15A09D2011C498C46624448
S11301801F210B401E39081C9840906101AA117070
S11301900023536093601374537491741F31535448
S11301A007930893124B536180235B02D360114B76
S11301B0536201235B4293620F4BD3620F4B136371
S11301C00F4C201C0F49104B98472268138ADB0BF5
S11301D0DB039BB2002BF9D1116802330B4313608C
S11301E00EB010BD204100203D0F0000004400412E
S11301F0A086010002001000020012000200130099
S113020018410020000C00422D14000070B59AB073
S11302100D1C141C0DA90870531C0A486A460A4E8A
S1130220B0476B461878002C0AD0611EC9B2013160
S113023000231A1C6A445278EA5401338B42F8D1E1
S11302401AB070BD184100200501000070B59AB0C5
S1130250161C20300DAA1070002B1DD05C1EE4B2B9
S1130260013400220DA880188D5C45700132A24231
S1130270F8D107E01A1C6A445278F25401339C42C4
S1130280F8D111E0013309480DA96A46084DA84781
S11302906B4618780023EDE704480DA96A4601234C
S11302A0034CA0476B4618781AB070BD1841002063
S11302B005010000F0B5574680B486B000240F2332
S11302C002ADAC4663441C700B78002B1BD001922A
S11302D00D1C00900E4B9A460E4F0F4E0098291C91
S11302E003AA019BD0476420B8470F2402AB9C4665
S11302F064440098211C019AB0476420B8472A78C6
S113030023789A42EAD1002006B004BC9246F0BD9C
S11303104D020000D10800000D02000010B582B0AB
S113032001AC0023237063700720211C0122024BBF
S11303309847207802B010BD0D02000010B582B0BD
S113034001AC002323706370064B98470F23984336
S113035020700720211C6A460E3B034CA04702B0C4
S113036010BDC0461D0300004D02000030B583B02F
S113037001AC002323706370E12269460A704B705C
S11303800348221C0133034DA847207803B030BD35
S1130390184100200501000030B583B001AC0023F2
S11303A023706370E22269460A704B700348221C72
S11303B00133034DA847207803B030BD1841002015
S11303C00501000070B584B0104D802676036E617F
S11303D064200F4B984701AC002323706370A37013
S11303E0E37023716371A371E37123726372094B28
S11303F09847094B98470F2323700020211C0122A2
S1130400064B9847AE6104B070BDC046004400413D
S1130410D10800006D03000099030000B50200003C
S113042010B584B0802252030E4B5A6164200E4BE7
S1130430984701AC002323706370A370E3702371A9
S11304406371A371E37123726372084B9847084B7D
S113045098470E2323700020211C0122054B984746
S113046004B010BD00440041D10800006D03000039
S113047099030000B5020000F0B55F4656464D46AC
S11304804446F0B487B080225203344B5A6164204E
S1130490334B984703AC00256570A570E570257152
S11304A06571A571E5712572657226232370062096
S11304B0211C01222B4EB047052323701120211C3F
S11304C00122B04725700520211C0122B0471123C9
S11304D09B46237022239A46637033239946A37064
S11304E044239846E370552727710A20211C6A4645
S11304F005231D4DA8475B462370534663704B4646
S1130500A3704346E37027711020211C6A4605231B
S1130510A847012525700220211C0122B047134B56
S1130520984725700120211C0122B0472F232370F6
S11305300420211C0122B0470D4B98470D4B9847CE
S11305400F2323700020211C0122B04707B03CBCBC
S113055090469946A246AB46F0BDC04600440041D1
S1130560D1080000B50200004D0200003D03000068
S11305706D0300009903000070B5B2B0051C0C1C9B
S113058019A961230B70631C0A486A460A4EB047D6
S1130590002C0AD0611EC9B2013100231A1C6A441E
S11305A05278EA5401338B42F8D1044B9847002027
S11305B032B070BD1841002005010000990300000D
S11305C070B5A0B0051C0E1C03A90E230B700020EF
S11305D06A460D3B144CA047144B9847144B98475C
S11305E0A02213AB1A70002E0AD0741EE4B2013498
S11305F0002213AB9918A85C48700132A242F8D1CA
S113060006AC731C0B4813A9221C0B4DA847267873
S11306100A4C80256D03A5610120094B984765614B
S1130620301C20B070BDC0464D0200006D030000B8
S11306309903000018410020050100000044004116
S1130640D1080000F0B583B06B46DF1DD8710B4CA8
S11306500B4E201C311C01220A4DA8478022D205D2
S1130660094B5A61201C391C0122084B9847201C55
S1130670311C0022A84703B0F0BDC046244100202D
S11306802C41002021170000804400410D18000077
S113069010B58EB05C4B984700205C4B98475C4982
S11306A05C4B9847830018184000802212055A4B6F
S11306B05A61002800D194E0584B586000229A6097
S11306C0191C802252020B681342FCD08EE00B6886
S11306D01342FCD0524C3123237000236370A37067
S11306E001A901224A708B700A7031204D4B984742
S11306F02378D9090022002904D15A09D201464994
S11307008C4662441F210B401E39081C984090619E
S113071001AA11700023536093601374537491748D
S11307201F3153540793089380235B02D3603E4BDD
S1130730536201235B4293623C4BD3623C4B136391
S11307403C4B53613C4C201C3C493D4B9847226830
S1130750138ADB0BDB039BB2002BF9D11168023344
S11307600B43136001236A465370002269468A7062
S11307700B703E202B4CA0471B206946A0478022CB
S11307801205254B9A61A8202E4CA0471F20A04794
S1130790D320A0470020A0474020A047A120A04785
S11307A0C820A047DA20A0470220A0478120A04704
S11307B08F20A047A420A047A620A047D520A0476B
S11307C08020A0478D20A0471420A047DB20A0470D
S11307D04020A047D920A047F120A047AF20A04740
S11307E010E0802212050C4B9A6173E780221205F7
S11307F0094B9A61094B586000229A60191C8022A7
S1130800520264E70EB010BD95080000B525000043
S113081040420F00A94A00000044004110E000E0FB
S11308202C4100203D0F0000020030000300360080
S113083003003700002D310124410020001C004238
S11308402D14000045060000F0B583B06B46DF1D93
S1130850D8710B4C0B4E201C311C01220A4DA847A9
S11308608022D205094B9A61201C391C0122084BB5
S11308709847201C311C0022A84703B0F0BDC04695
S1130880244100202C410020211700008044004115
S11308900D18000010B50020084B9847084CFA21A9
S11308A08900A047074B1860FA218900A047064B2E
S11308B018600522054B1A6010BDC046B52500001E
S11308C0A94A0000040000200000002010E000E01D
S11308D030B5084B1C68084A00258021490206E00F
S11308E0002C04D05460956013680B42FCD001388E
S11308F0F6D230BD0400002010E000E0014B186087
S11309007047C04640000020024B1B68C0014118DC
S1130910CA54704740000020024B1B68C0014018B5
S1130920185C704740000020F0B557464E464546D7
S1130930E0B482B08418802C03DD80246442241A3D
S1130940E2B2002A55D0CD08EC00091B01248C40EA
S1130950A146211C6C46E171E1798846012B04D043
S1130960002B19D0022B2ED043E0141C471E244B1D
S11309709A46244B9946E619F6B2281C311CD047F6
S113098043461843C2B2281C311C0023C847013C0B
S1130990E4B2002CEFD12CE0141C471E184B9A46ED
S11309A0184B9846E619F6B2281C311CD0474B4622
S11309B09843C2B2281C311C0023C047013CE4B256
S11309C0002CEFD115E0141C471E0D4B9A460D4B1D
S11309D09946E619F6B2281C311CD04743465840C4
S11309E0C2B2281C311C0023C847013CE4B2002CCD
S11309F0EFD102B01CBC90469946A246F0BDC04659
S1130A00390E00002D0D0000F0B5474680B482B0C9
S1130A10002A3DD00193061C481E1318DBB29942EC
S1130A2004D1301C019A1C4B984731E03E2B00D96D
S1130A303F23CC08DF0807252940FF20021C8A40F9
S1130A40D2B22B400721CB1A1841C3B29846BC42FC
S1130A5006D11A40201C311C019B104CA04717E002
S1130A60201C311C019B0D4DA8470134A74209D914
S1130A700A4D201C311CFF22019BA8470134E4B21B
S1130A80A742F6D8381C311C4246019B034CA047B0
S1130A9002B004BC9046F0BDD10D0000450E00002C
S1130AA0F0B55F4656464D464446F0B483B0041C48
S1130AB00D1C0CA909780091904204D9291C1D1C15
S1130AC00B1C141C021C121BD2B2D0B25B1BDBB277
S1130AD0D9B246B20127BA46002E03DA5242D0B246
S1130AE0FF2292464AB20126B346002A03DA5B4249
S1130AF0D9B2FF239B4643B24AB2934221DDCBB223
S1130B009946C3B201934A46D61AF6B243B29846FE
S1130B10002B37DB0027201C291C009A1D4B98470B
S1130B2073B2002B04DB019BF61AF6B25D44EDB2FE
S1130B304E44F6B25444E4B20137FFB24745EADD0D
S1130B4020E0C3B29846CBB201934246D61AF6B21D
S1130B504BB29946002B15DB0027201C291C009A58
S1130B600C4B984773B2002B04DB019BF61AF6B2C8
S1130B705444E4B24644F6B25D44EDB20137FFB2E8
S1130B804F45EADD03B03CBC90469946A246AB46CD
S1130B90F0BDC046D10D0000F0B583B0071C0E1C9B
S1130BA0009308AB1D7801922B1C0D4CA047009BB1
S1130BB0591E7118C9B2381C019A2B1CA047381C45
S1130BC0311C009A2B1C074CA04701980138381897
S1130BD0C0B2311C009A2B1CA04703B0F0BDC04624
S1130BE029090000090A0000F0B583B008AC277891
S1130BF0002B0ED0019200901C1C4E1E064DA11914
S1130C00C9B20098019A3B1CA847013CE4B2002CED
S1130C10F5D103B0F0BDC04629090000F0B55F4628
S1130C2056464D464446F0B485B0041C8846151C0F
S1130C309B461A7A5B7A002100914046291C254E76
S1130C40B0475B461B78002B3CD15B461B7ADE0821
S1130C505B0700D001365B465B7A9A465B469B7A1B
S1130C60E41A53465C436643B6B25B465B689C46F3
S1130C7066440395072399465B461F7A002F17D0D5
S1130C8000250024EBB242469818C0B24A461A42E4
S1130C9001D13478013663B2002B03DA03990122BF
S1130CA00D4B98476400E4B20135EBB29F42E9D89A
S1130CB0039B0133DBB203935346013BDBB29A46F9
S1130CC0002BD9D105B03CBC90469946A246AB4610
S1130CD0F0BDC046E90B0000D10D0000F0B5474659
S1130CE080B482B0041C019190461F1C0D1C207816
S1130CF00A2806D17A7A01324244D3B29846019D39
S1130D0009E00D2807D0291C42463B1C064EB0477B
S1130D103B7AEB18DDB201342378002BE7D102B023
S1130D2004BC9046F0BDC0461D0C0000F8B5051C7F
S1130D300C1C161C002B03D10D4B9847B04215D048
S1130D40281C211C321C0B4B98470F273D40B02018
S1130D502843094DA8476006400F10231843A847AD
S1130D60381C2040A847301C044B9847F8BDC046A7
S1130D70190900000909000045060000490800009F
S1130D80F8B50E480E4B98470E4B984740200E4B33
S1130D909847002500260D4F0CE0281C211C321C0E
S1130DA00123B8470134E4B2802CF6D10135EDB209
S1130DB0082D01D0341CF0E7F8BDC04644000020E3
S1130DC0FD08000091060000450600002D0D0000FE
S1130DD0F0B5474680B4041C151C43B2002B23DB3A
S1130DE03F2921D8CF08FB00C91A01268E40F3B24F
S1130DF09846381C211C0E4B9847021C012D04D028
S1130E00002D06D0022D07D009E043461843C2B294
S1130E1005E0B043C2B202E043465840C2B2381CB7
S1130E20211C0023034CA04704BC9046F0BDC046DF
S1130E30190900002D0D000008B5014B984708BDA5
S1130E4019090000F8B5051C0C1C171C1E1C0C4BC2
S1130E509847021C012E04D0002E05D0022E06D085
S1130E6007E03843C2B204E0B843C2B201E07840BC
S1130E70C2B2281C211C0023024CA047F8BDC04666
S1130E80190900002D0D00000C4B1B68002B10D11C
S1130E90EFF31083002B09D172B6BFF35F8F0022EA
S1130EA0074B1A700132074B1A7002E00022054BFF
S1130EB01A70024A13680133136070474404002017
S1130EC01400002048040020084B1A68013A1A60F4
S1130ED01B68002B09D1064B1B78002B05D001227F
S1130EE0044B1A70BFF35F8F62B67047440400204E
S1130EF04804002014000020F0B583B001AC0126A2
S1130F0066700027A77026700E20211C094DA84783
S1130F108022D201084B9A611420211CA847277013
S1130F2066700F20211CA8472E20211CA84703B05F
S1130F30F0BDC0463D0F00000044004100B583B041
S1130F4001AB80221A700A785A704A789A708A78AB
S1130F50DA70191C014B984703B000BDC527000087
S1130F6010B54908402481420CD30023091A0133E7
S1130F709BB28842FAD9013B9BB24024FF2B01D893
S1130F8013800024201C10BDF0B55F4656464D4624
S1130F904446F0B489B01C1C12AB1B78061C5E439B
S1130FA040258E4200D9C7E0251C07920C1C021C68
S1130FB0002D51D1181C00210023634DA8478346FE
S1130FC0261C0027002300240293039400220023FC
S1130FD03F2020218C461F3900960197202464422B
S1130FE0041903D40D1CA540A84604E06446241A41
S1130FF00D1CE540A8460C1C8440A146141C1D1C75
S1131000A4185D41221C2B1C5E4647463E4203D079
S11310100E1C2643321C2B1C019C9C4210D802D16E
S1131020009C94420CD8009C019D121BAB414D4680
S1131030029E039F35433C1C464634430295039469
S11310400138CBD20022012302980399121A8B4152
S1131050110C1B0419436CE00021012D69D1610FAF
S11310600F1CE1008846181C00210023364CA047C1
S1131070041C0D1C00239C4620339B46012663461A
S11310800593B9466B461B7D069300239C460020BE
S113109000213F220094019520235B42D31803D4FE
S11310A0341C9C40231C04E05B469B1A341CDC402B
S11310B0231C371C9740041C0D1C24184D41201C74
S11310C0291C0290039144463C40A2464C462340CE
S11310D05446234305D0029B039C1D1C3543281C06
S11310E0211C019B8B420AD802D1009B834206D863
S11310F0009B019CC01AA14163463B439C46013AB4
S1131100CAD2009C019D62460599531ADB080F4A16
S1131110934208D9069A0132D2B206920A1C0132CD
S11311200592082AAED14025069A082A04D0510314
S11311301943079B19800025281C09B03CBC904624
S11311409946A246AB46F0BDCD4B0000FF1F000000
S113115010B582B0041C0E4B1B78002B01D0002963
S11311600DD001A90C700C200A4B98470C200A4B97
S11311709847074B5C7001221A70002006E0044B6C
S11311805B78834201D01D2000E0002002B010BD36
S11311904C040020CD26000041260000444B984218
S11311A033D006D8434B98420DD0434B98421BD0C2
S11311B06FE0424B98424AD0414B984258D0414B41
S11311C0984266D132E0012906D0002963D0022971
S11311D006D0032906D001E03B4867E0002065E023
S11311E03A4863E03A4861E0012906D0002954D026
S11311F0022906D0032906D001E0364856E0002033
S113120054E0354852E0354850E0012906D0002921
S113121045D0022906D0032906D001E0304845E034
S1131220002043E02F4841E02F483FE0012906D049
S1131230002936D0022906D0032906D001E02B4824
S113124034E0002032E02A4830E02A482EE0012928
S113125006D0002927D0022906D0032906D001E0B0
S1131260254823E0002021E024481FE024481DE015
S1131270012906D0002918D0022906D0032906D056
S113128001E0204812E0002010E01F480EE01F4853
S11312900CE000200AE01E4808E0032006E01D4898
S11312A004E01D4802E01D4800E01D487047C046A8
S11312B00010004200080042000C004200180042E6
S11312C0001C004200140042030005000300060055
S11312D0030007000300010003001E0003001F00B9
S11312E00300090003000A0003000B0003001100BF
S11312F0030012000300130003000D0003000E009E
S113130003000F0003001700030018000300190076
S113131003000400030008000300100003000C0095
S11313200300160030B587B00C4B6A4632CB32C28C
S113133032CB32C2009B834206D001239A00694615
S11313405258824203D100E00023D8B203E00133B3
S1131350062BF3D1002007B030BDC046144F000067
S11313607047C046F0B50A4B1B78002B0CD1094FCF
S1131370094E0A4D0024DE515A1914600433182B07
S1131380F9D10122024B1A708000024BC150F0BD0A
S11313904E0400205004002061130000304100205E
S11313A010B582B0041C684605490622054B9847CF
S11313B0201C054B98476B46185602B010BDC0461A
S11313C02C4F00006D4C00002513000008B5024BA3
S11313D01B680020984708BD5004002008B5024B44
S11313E05B680120984708BD5004002008B5024BF3
S11313F09B680220984708BD5004002008B5024BA2
S1131400DB680320984708BD5004002008B5024B50
S11314101B690420984708BD5004002008B5024BFE
S11314205B690520984708BD50040020F0B55F466D
S113143056464D464446F0B489B080460D1C141CF3
S1131440031C19600B689B0700D49CE0536A039348
S1131450936A0493D36A0593136B069300271F239F
S11314609946F9B2BB0003AA9858002802D1281C57
S1131470A04B9847431C28D001040B0C9B46000C3E
S1131480C6B20023020604D47309DB019A4A9446C7
S113149063444A463240981840300078824680209F
S11314A05146C9070AD552089B1830331878C0B280
S11314B0F30701D5000901E00F231840834504D048
S11314C00023424613601C200CE10137042FC8D1CD
S11314D00C208A4B9847011C22780027012A11D13D
S11314E0606902AA864B9847031C1720002B00D082
S11314F0F8E0AB7ADBB202AA127805309A4200D047
S1131500F0E00C372678002E15D163699C46228BB7
S11315102B68E17E0904A07E01431C20994200D07F
S1131520E0E0237F002B01D040231A4308236146C7
S113153019430F4300E00022A36861680B43E1688C
S11315400B433B43217C0A43617C002901D0802169
S11315500B43A17C002902D0802189020A43286818
S113156002210B43834209D16B68934206D143465F
S11315705E71237C424693710020B3E0002342460F
S113158013601C20AEE00B680520DB0700D5A9E042
S1131590081C5C4B98475C490A6A861C0123B340CB
S11315A013430B6207A92027E35D0B700D30C6B20D
S11315B0301C564B9847301C554B9847E05D002132
S11315C0544B98472378012B03D12A680B331343D8
S11315D02B602378002B03D12A68083313432B6034
S11315E043461E6802AB80221A7000225A70012101
S11315F09970DA702378002B01D102AB9A70636A78
S11316000393A36A0493E36A0593236B0693002769
S113161002ADF9B2BB0003AA9858002802D1301CCD
S1131620344B9847431C05D02870000CC0B2291CC9
S1131630394B98470137042FEBD123784246537135
S1131640237C9371A37CD37100226B46DA802378C8
S1131650012B15D1434618682A4B98470D30C0B268
S1131660264B9847011C60696B469A1D244B98478A
S1131670031C1720002B35D16B4606331B78B3723D
S11316802378002B0ED16169228B7069E37E1B04E1
S1131690A57E2B4303437361237F002B04D0402397
S11316A01A4301E000220021A36860680343E06854
S11316B003430B43217C0A43617C002903D117496E
S11316C08978890701D580210B43A17C002902D0A8
S11316D0802189020A4331680B43336073681A43DB
S11316E07260002009B03CBC90469946A246AB46C5
S11316F0F0BDC0469D11000000440041E9260000F1
S1131700610F00002513000000040040CD260000F6
S11317104126000051110000C527000000200041AF
S113172010B544791523012C6CD1002A5AD04B787A
S1131730002B46D003689B7BDB0710D40B78D909B8
S11317400022002904D15A09D2012F498C4662444F
S11317501F210B401E3999409161052352E00B78FB
S1131760DC090022002C04D15A09D201264CA446DB
S113177062441F2423401E3C9C4054618A780368C1
S1131780997BC90700D51A83C2790023002A39D16D
S113179002680421937B0B42FCD0917B0023490710
S11317A030D5138A5B0703D5118A04230B431382B4
S11317B08379012B02D1138B002323E0138B0023A5
S11317C020E00B78D9090022002904D15A09D2015A
S11317D00D498C4662441F210B401E3999405161CA
S11317E000230FE00B78D9090022002904D15A09FB
S11317F0D20105498C4662441F210B401E39994091
S113180091610023181C10BD00440041F0B55F46EF
S113181056464D464446F0B483B01723002A00D1FF
S1131820ECE04379002B05D103689C7BA40701D528
S113183002249C739346002401230225AC460235FE
S1131840A9468EE04579002D17D10768BD7B1D425E
S113185006D16E4DBE7B1E4202D1013D002DF9D151
S11318600668B57B67463D4203D00223B373023357
S1131870C4E0B57B1D4200D1B7E00668B57B1D42CC
S1131880FCD0651CADB2A8460D5D8779012F02D04E
S1131890ADB2444605E00234A4B24746CF5D3F02F0
S11318A03D43B77B1F4202D0ED05ED0D3583551E38
S11318B0ADB2C679002E57D04579002D37D1544F9B
S11318C001910568AE7B1E421CD0661CB1B28846ED
S11318D00199095D00918179012903D069460E8837
S11318E0444607E00234A4B24146019E715C0902F9
S11318F0009E0E43A97B194202D0F605F60D2E83F5
S1131900013A92B20668B57B49460D4202D1013FC5
S1131910002FD6D10199B57B67463D4203D00223FF
S1131920B37302336AE0B57B4E4635425FD0066836
S1131930B57B4F463D42FBD0B57B3D420DD0358A49
S11319403D4204D0358A04273D43ADB235828579C2
S1131950012D01D1358B00E0358B5D46013DADB2E3
S1131960AB46013A92B200E02A1C2A4DAA4200D0AA
S113197068E75A464379012B06D1016802228B7B22
S11319801342FCD0002339E0002B32D1C179002965
S113199034D0002A1FD131E0A27B0A4202D1013B9C
S11319A0002BF9D103689A7B0A4224D09A7B0A421D
S11319B00CD01A8A0A4203D01A8A324392B21A828B
S11319C08279012A01D11B8B00E01B8B013FBFB23E
S11319D0002F04D111E004210C4D04265F46046855
S11319E0A37B0B42DED12B1CD6E7122306E0122385
S11319F004E0002302E0122300E00023181C03B0DB
S1131A003CBC90469946A246AB46F0BD1027000068
S1131A1011270000FFFF0000F0B55F4656464D4613
S1131A204446F0B485B0894603929A461726002BA3
S1131A3000D138E1C3790536002B00D133E1437975
S1131A40002B05D103689A7B920701D502229A7371
S1131A5053465F1EBFB200239B46012204214479F2
S1131A60002C17D10668B47B144206D1924CB57B86
S1131A70154202D1013C002CF9D10468A57B022651
S1131A80354203D00223A37302360CE1A47B144233
S1131A9000D1F8E00568AC7B1442FCD05E1CB6B201
S1131AA04C46E45CA0468479012C05D043466C4640
S1131AB0A380A488331C06E002339BB24C46A65D87
S1131AC0360244463443AE7B164200D1E5E0E405D9
S1131AD0E40D2C83E1E0794D01970468A67B16425E
S1131AE01ED05E1CB6B2B4464E46F65C02968779AA
S1131AF0012F02D0B6B2634608E002339BB24F46D0
S1131B006646BE5D3602029F37433E1CA77B1742E2
S1131B1002D0F605F60D2683019F013FBCB2019465
S1131B200468A67B0E4202D1013D002DD5D1019F50
S1131B30A57B0226354203D00223A3730236B2E00A
S1131B40A47B0C4200D1A0E03E1C0568AC7B0C4297
S1131B50FCD05446013CA4B2A246AC7B0C4217D044
S1131B602F8A00240F4205D02C8A04273C43A4B2B8
S1131B702C821E248779012F03D12D8BED05ED0DC9
S1131B8002E02F8BFF253D40002C03D0261C8AE069
S1131B90102688E05C460134A4B2A446039F5C4648
S1131BA03D558779012F08D15F460237BCB2A34661
S1131BB02D0A039C6746E55500E0E346771EBFB255
S1131BC0002E00D04BE752464379012B06D1016821
S1131BD002228B7B1342FCD0002664E0002B56D1FA
S1131BE00026002A5FD03EE0B57B3D4202D1013B96
S1131BF0002BF9D163461B689D7B3D4249D00138D7
S1131C0080B29D7B3D4216D01D8A00263D4205D000
S1131C101D8A49460D43ADB21D821E3661468D793B
S1131C20012D03D11D8BED05ED0D01E01D8B25402C
S1131C30002E02D037E0102635E05B4601339BB21C
S1131C4046465946755461468E79012E07D15E4643
S1131C500236B1B28B462D0A4146CD5400E09B4674
S1131C60002809D117E00427134A04239946FF24C6
S1131C708446039B9846504663461E68B37B3B42AA
S1131C80B8D1131CB0E712260DE012260BE0002693
S1131C9009E0122607E0002605E044793E1C002CEA
S1131CA000D052E717E7301C05B03CBC904699467B
S1131CB0A246AB46F0BDC046102700001127000025
S1131CC0F0B55F4656464D464446F0B48DB0051C0B
S1131CD00C1C161C2960081C824B9847226805239B
S1131CE0D20700D5F5E022681733920700D5F0E05B
S1131CF07D490A6A871C1B3BBB4013430B620BA93B
S1131D00737F0B700D30C7B2381C784B9847381C62
S1131D10774B9847707F0021764B9847F37A6B7125
S1131D20337DAB71737DEB712B689946181C6D4B39
S1131D3098470D3000220E2302A98C4663441A8072
S1131D4033689A46F3689B46B37D029372680392A4
S1131D50002A14D080235B059A4230D1F37D002BF6
S1131D6031D133699846C0B2634B9847011C404651
S1131D700E2202AB9C466244604B984720E0F37D00
S1131D80002B0BD0102300933069B1690E2202ABF3
S1131D909C46624400235A4FB84711E03369984681
S1131DA0C0B2554B9847011C1023009340460E22A5
S1131DB002AB9C4662440023514FB84700E0002028
S1131DC0031E00D085E02A68138ADB0BDB039BB279
S1131DD0002BF9D10E3302AA944663441B884A4669
S1131DE053815B4652461343039A1343029A57079F
S1131DF01F43F37D002B01D104331F43737D1A0469
S1131E00337D5B041343F17A19433289FF2A03D0EB
S1131E1080235B041F431143337F002B03D1394BD1
S1131E209B789B0701D580231F432A68138ADB0B09
S1131E30DB039BB2002BF9D14B4659602A68138A05
S1131E40DB0BDB039BB2002BF9D14B461F600AABC3
S1131E5080221A7000225A70DA709A70336A0693DC
S1131E60736A0793B36A0893F36A0293099300278A
S1131E700AAEF9B2BB0006AA9858002802D1201C69
S1131E80214B9847431C05D03070000CC0B2311C64
S1131E901E4B98470137042FEBD10023AB60EB6056
S1131EA02B61AB616B610022EB83AB832033EA547B
S1131EB00133EA540133EA540133EA542868094BE4
S1131EC09847041C1249134B9847A400124BE55041
S1131ED00023181C0DB03CBC90469946A246AB4664
S1131EE0F0BDC0462513000000040040CD260000CC
S1131EF04126000051110000E9260000610F000096
S1131F00890F0000002000419D110000C52700003A
S1131F101D1F00006513000030410020F8B580004B
S1131F20494BC5582C68238ADB0BDB039BB2002B7F
S1131F30F9D1A37B667B1E402123EB5C2022AF5C9E
S1131F401F40F30722D5EB8B9BB2002B1CD0AA6950
S1131F501378DBB2511CA9616979012901D09BB2C4
S1131F6004E0517809020B430232AA61DB05DB0D60
S1131F702383EB8B013B9BB2EB83002B06D1013314
S1131F8023730133637301E001232373B30709D57A
S1131F900223237300222133EA54FB0702D5281CB1
S1131FA0AB68984773074ED5AB8B9BB2002B48D0D8
S1131FB0238ADBB25A0722D09A0707D51A22222392
S1131FC0EA54228A203B1343238212E05A0707D59E
S1131FD01E222223EA54228A1E3B1343238208E052
S1131FE0DB0706D513222223EA54228A213B13431A
S1131FF023827B0727D52B69281C984723E0238B52
S1132000DB05DB0DDAB269690A706A69511C696122
S11320106979012904D11B0A53706B6901336B611F
S1132020AB8B013B9BB2AB83002B0CD104332373EA
S113203000221E33EA54BB0705D5EB68281C9847D9
S113204001E004232373F8BD3041002008B50728BC
S113205003D88000174B1B589F46002028E0164BDE
S1132060D86825E0154B186A8005800F144BC340CF
S1132070181C1DE0104B18691AE00F4B1B68022056
S1132080184015D00D491022CB681A42FCD00A4BD7
S11320901B685B070BD500200A4B9847064B9B68CF
S11320A01B041B0C584303E08020000200E0064898
S11320B008BDC046344F00006804002000080040FA
S11320C000127A00E9260000006CDC0270B50C4CAA
S11320D0236A0178857842780120024092014026E3
S11320E0B3431343021C2A40D2017F30834313437A
S11320F003220A40120203490B401343236270BDBA
S113210000080040FFFCFFFFF0B55F4656464D4611
S11321104446F0B483B02E4EB38A9C464578037887
S11321205A425A41914683789B46C3780279904635
S1132130477B027B0192847B8268264802610120EE
S11321404A469200914604229246624651468A4388
S113215094464A4661460A43944642460240D200A7
S1132160904608229146624649468A43944642462E
S113217061460A43944603401B011022904662467E
S113218041468A431343594601404901202293435F
S11321900B43019A0240920140218B4313430740B1
S11321A0FF01802293433B43793A15402D020A4FA5
S11321B03B402B4304402003084C1C400443B4829E
S11321C003B03CBC90469946A246AB46F0BDC0461F
S11321D00008004068040020FFF8FFFFFFEFFFFF46
S11321E010B5264B9B691B051B0F022B09D8027ADD
S11321F01202F82149010A40817A0A4320494A60BF
S113220008E0027A9206110C42899205920D0A4363
S11322101B494A60848842881443C27981790A43FD
S113222022434178C9010A4315490A600278042A05
S113223023D1022B10D8037B1B06F822520513402E
S1132240191CC3891B04FF22120413400B43028A86
S113225013430B4A93600BE0037B9B06028A1343F0
S1132260191CC3891B04074A13400B43044A936097
S1132270034A116804230B43136010BD002000417E
S1132280680400200000FF03072803D880001E4BC9
S11322901B589F46172036E01C4A116A02230B4341
S11322A0136200202FE0194A916902230B439361C2
S11322B0002028E0154A118A02230B4313820020D0
S11322C021E0124A918A02230B43938200201AE0F0
S11322D00F4B196802220A431A601A680D4B134007
S11322E00A4A9384111C1022CB681A42FCD0084A73
S11322F09168064BD96251689962126892B29A84C5
S1132300002000E000207047544F00000008004007
S1132310680400207FFF0000F0B58FB0C222D20015
S11323204E4B9A604E494B681E2293431A3A13430C
S11323304B60023A01AB1A7000244A4DE0B201A985
S1132340A84701341C2CF9D10AA800230370837018
S1132350802212028260C3700122027103738373AC
S1132360053242704373404B984705203F4B9847D2
S11323703A490222CB681A42FCD0384A918A802317
S11323800B43938205AB00210022598099809A71F6
S1132390DA7107311972383159813E391973D9818B
S11323A005311982023919705A70314B9B691B052A
S11323B01B0F022B07D92F4B1B689B0E3F2B00D101
S11323C0203B05AA137205A8B723DB000382072369
S11323D003733833C381284B984704A800254570FC
S11323E0012686700570254B984706201F4FB84775
S11323F0234B984701AC02966570257265720523DC
S113240023700120211C1F4B984701201E4B984725
S113241026700020211C134B984700201B4B984723
S11324200720B8470D49D022CB681340D02BFBD1ED
S1132430174A0023137253729372D37201A90122B3
S11324404A604B700B724B7207330B7000200D4BBC
S1132450984700200C4B98470FB0F0BD000800408F
S113246000400041CD26000009210000892200001F
S11324700020004124608000E1210000CD20000004
S113248095240000B92400007125000041260000B5
S113249000040040064A916908230B43936101221A
S11324A0044B1A70191C0B781342FCD17047C046B8
S11324B000040040000C004070B5061C041C0D789C
S11324C02D0205434B78002B02D08023DB021D43F1
S11324D04B7A002B02D080231B031D43486801283C
S11324E018D9431E184210D1022806D9022300220B
S11324F001325B009842FBD800E000221202324312
S1132500141C80235B031D4304E004023443802332
S11325109B021D430B7A002B02D080239B031D4397
S11325200F4A53785BB2002BFBDB0E4B98470E4BE4
S11325301E700B4A53785BB2002BFBDB084B9C608C
S11325401A1C53785BB2002BFBDB054A51688023CD
S11325505B020B401D435560044B984770BDC04659
S1132560000C0040890E0000080C0040C90E000059
S113257010B5041C0B4A53785BB2002BFBDB0A4BEF
S113258098470A4B1C70074A53785BB2002BFBDB5D
S1132590044A5368802149020B435360044B984713
S11325A010BDC046000C0040890E0000040C004021
S11325B0C90E000070B5041C1A4A53785BB2002B94
S11325C0FBDB194B9847194B1C70164A53785BB2C6
S11325D0002BFBDB134E7068C004C00E144B9847ED
S11325E0051C124B1C707668F602F60F114B1C701A
S11325F00C4A53785BB2002BFBDB0A4B9C68240A21
S1132600A4B20D4B9847002E07D1012C07D9281CE2
S1132610211C0A4B9847051C01E00134E540281CA5
S113262070BDC046000C0040890E0000040C004040
S11326304D200000080C0040C90E0000A94A00000B
S113264010B5041C064B9847064B1C70064A51886B
S11326508023DB010B435380044B984710BDC046D5
S1132660890E0000020C0040000C0040C90E00005E
S113267010B5041C0F4B98470F4B1C700F4B5A8816
S11326801205100F59880E4A0A405A8059880D4A7B
S11326900A405A80191C8022D2014B881342FCD173
S11326A0064902024888064B034013434B80064BFD
S11326B0984710BD890E0000020C0040000C004039
S11326C0FFF0FFFFFFBFFFFFC90E000010B50C783D
S11326D024020443024B9847A4B2024B5C8010BD11
S11326E071260000000C004010B5041C064B9847EE
S11326F0064B1C70064B5C882405240F054B984739
S1132700201C054B984710BD890E0000020C0040A8
S1132710000C0040C90E0000B525000030B5D37888
S1132720002B1ED11478802C04D0240680235B0255
S11327301C4300E0002453780225AB430AD193786C
S1132740002B03D180239B021C4302E0C023DB0245
S11327501C4341605378013B012B12D8184B1C4099
S11327600FE041600B041B0CA024E40523438362A7
S11327700B0CD024240623438362D378002B18D077
S11327801CE00B041B0CA025ED052B4323438362A3
S11327900B0CD0252D062B4323438362D378002BC7
S11327A00CD1630305D59378012B01D1816100E03D
S11327B041615378013B012B00D8816030BDC04694
S11327C0FFFFFBFF08B5031C0A1CC10900200029F8
S11327D004D15809C00105498C4660441F210B40AF
S11327E01E399940024B984708BDC0460044004139
S11327F01D2700007047C04608B5054B9847054B98
S11328009847054B9847054B9847054B984708BD93
S113281019230000F90E0000F5270000F527000039
S1132820F5270000FEE7C04610B51D4B1D4A9A422D
S113283003D01D4B1A4A9A4204D31C4B1C4A9A4299
S113284010D31EE01B4A184B03339B1A9B08013319
S11328509B000022124813498C58845004329A4237
S1132860FAD1EAE7144A114B03339B1A9B0801334C
S11328709B0000220E4800211418216004329A4261
S1132880FAD10E4AFF210E4B8B4393600D4A5168D7
S113289080230B4353600C4B98470C4B9847FEE73F
S11328A00000002054500000240000204841002073
S11328B024000020040000202800002000ED00E097
S11328C00000000000400041214C0000314A00009B
S11328D0031C08334360012252428260C3600361D7
S11328E0002303607047C046002303617047C0465D
S11328F043684B609A688A609A685160996008617D
S1132900036801330360704730B50C68021C083259
S1132910631C02D1026904E01A1C53681D68AC42AE
S1132920FAD253684B6099608A6051600861036809
S11329300133036030BDC046036942688168916019
S11329408268416851605A68824201D192685A6033
S1132950002202611A68501E18607047034B1B68FE
S1132960013301D072B6FEE772B6FEE7180000200C
S1132970064A13681868203080F30988022080F31F
S113298014883FBCAE4662B600BDC046D03F0020AE
S113299010B5031F802464041C60043B1960043BCD
S11329A002491960143B1A60403810BD5D290000CB
S11329B07047C04680225205034B1A60BFF34F8F05
S11329C0BFF36F8F7047C04604ED00E072B6044A4F
S11329D0136801331360BFF34F8FBFF36F8F7047DA
S11329E018000020064B1B68002B01D172B6FEE7CD
S11329F0013B034A1360002B00D162B67047C04606
S1132A0018000020EFF3108072B670470020C04613
S1132A1080F310887047C046EFF309800E4B1A68A4
S1132A2020381060F0C044464D4656465F46F0C01C
S1132A3008B572B600F064FF62B60CBC1168086891
S1132A401030F0C8A046A946B246BB4680F30988B8
S1132A502038F0C81847C046D03F002010B5074BB7
S1132A609847041C064B9847002803D0802252053F
S1132A70044B1A60201C044B984710BD052A000023
S1132A80FD35000004ED00E0112A000008B5002225
S1132A90074B1A600020074B9847C821064B9847FC
S1132AA00138064B18600722054B1A6008BDC04662
S1132AB018E000E0B5250000A94A000014E000E099
S1132AC010E000E008B50A4B1A68FF2109040A4324
S1132AD01A601A68FF2109060A431A60054B9847D1
S1132AE00022054B1A60054B9847054B9847C04692
S1132AF020ED00E08D2A000018000020712900005C
S1132B005D29000038B5041C430702D007239C4309
S1132B100834104B9847104B1B68002B05D1072233
S1132B200E4B083393430C4A13600D4B1B68E41897
S1132B300C4A944207D8A34207D2074A1568ED18F5
S1132B40074B1C6002E0002500E00025064B984777
S1132B50281C38BDCD350000183F0020800400201B
S1132B607C0400208F3A000021370000002801D0A7
S1132B7072B6FEE77047C04638B5041C151C026CDB
S1132B80002A08D10368002B2CD14068174B9847C2
S1132B900023636026E0002D0DD18068144B984714
S1132BA0A368226C94466344A3606268934219D379
S1132BB02368A36016E0C0680D4B9847236C5B4202
S1132BC0E268D218E26021688A4203D262689446BD
S1132BD06344E360022D05D1A36B002B02D0A36BE9
S1132BE0013BA363A36B0133A36338BDCD3C000059
S1132BF06D4C000010B582B00190C46C002C01D162
S1132C0072B6FEE7A26BE36B9A4201D372B6FEE79B
S1132C10A26B002093420ED90A1C201C01A9074B69
S1132C2098470020636A002B05D0201C2430044BF5
S1132C309847431E984102B010BDC046792B00004E
S1132C40F93A000038B50468002C0CD0026CC36853
S1132C509B18C3604568AB4200D3C4600B1CC168B9
S1132C60181C014B984738BD6D4C0000F8B5041C86
S1132C70244B9847A36C002B1CDD234D234EE36C9F
S1132C80002B07D0201C0021A84701280CD1204B81
S1132C90984709E0636A002B0CD0201C2430B0470D
S1132CA0002801D01A4B9847A36C013BA364A36C82
S1132CB0002BE4DC01235B42A364164B9847114BC1
S1132CC09847636C002B16DD2369002B04D112E0B6
S1132CD02369002B04D10EE0251C10350B4F0C4E3C
S1132CE0281CB847002800D0B047636C013B6364DC
S1132CF0636C002BECDC01235B426364054B984757
S1132D00F8BDC046CD290000F52B0000F93A0000BB
S1132D10113C0000E529000038B5002801D172B645
S1132D20FEE70D1C041C154B98472268216CE36BCD
S1132D304B43D01860600020A063A2605B1AD318D4
S1132D40E36001235B426364A364002D0BD1236918
S1132D50002B0FD0201C1030094B9847012809D1B3
S1132D60084B984706E0201C1030074DA847201C4C
S1132D702430A847054B9847012038BDCD290000D1
S1132D80F93A0000B5290000D1280000E529000027
S1132D9070B5002813D00E1C051C50200E4B98470C
S1132DA0041E0CD0301C684301300B4B9847206044
S1132DB0002806D1201C094B984700E0FEE772B6B4
S1132DC0FCE7E5632664201C0121054B984700239A
S1132DD0E364201C70BDC046052B00006D2B000071
S1132DE0192D0000F0B557464E46C0B485B0019287
S1132DF0002801D172B6FEE7002904D1026C002A32
S1132E0001D072B6FEE7022B04D1C26B012A01D0B5
S1132E1072B6FEE71D1C0091041C414B9847002824
S1132E2004D1019B002B03D072B6FEE7002700E01B
S1132E3000273C4EB047A36BE26B934201D3022DB3
S1132E401FD1201C00992A1C374B9847E36C002B98
S1132E5008D0201C291C354B984701280DD1344B30
S1132E6098470AE0636A002B07D0201C2430314BBA
S1132E709847012801D12E4B98472F4B98470120A2
S1132E8049E0019B002B03D12B4B9847002042E0E3
S1132E90002F03D102A8294B98470137264B9847A6
S1132EA0274B98471F4B9847636C013301D100238C
S1132EB06364A36C013301D10023A3641E4B9847C0
S1132EC002A801A91F4B984700281ED1154B98470B
S1132ED0A36B9A46E36B9946174B9847CA450ED1A4
S1132EE0201C10300199184B9847201C174B984709
S1132EF0174B984700289DD10D4B98479AE7201C03
S1132F00124B9847124B984794E7201C0F4B984755
S1132F100F4B9847002005B00CBC91469A46F0BD73
S1132F20293C0000CD290000792B0000F52B00007E
S1132F30B5290000F93A0000E5290000813B0000B2
S1132F40CD350000A13B0000613A00006D2C00006B
S1132F502137000038B55020114B9847041E01D08A
S1132F6002E0FEE772B6FCE700234360036083607F
S1132F70C36083630122C2630364023A42648264CD
S1132F80C3641030074DA847201C2430A847201CD8
S1132F90002100220023044DA847201C38BDC04650
S1132FA0052B0000D1280000E52D0000F0B583B00A
S1132FB0002801D172B6FEE7002904D1046C002C6C
S1132FC001D072B6FEE71D1C171C0191041C022BD4
S1132FD038D1C36B012B30D072B6FEE7201C0199A7
S1132FE02A1C1F4B9847A36C01331DD1E36C002BA3
S1132FF00BD0201C291C1B4B98470125012829D1E3
S1133000002F16D001233B6024E00125636A002BC6
S113301020D0201C2430144B984700281AD0002FAD
S113302009D001233B6015E0A36C0133A36401259F
S113303010E001250EE001250CE00C4B9847061C1E
S1133040A36BCBE7094B9847061CA36BE26B934237
S1133050C4D30025301C064B9847281C03B0F0BD90
S1133060792B0000F52B0000F93A0000052A000036
S1133070112A0000F0B54F4680B484B001920028B4
S113308001D172B6FEE7002904D1026C002A01D0F6
S113309072B6FEE71E1C0091041C4A4B9847002898
S11330A004D1019B002B03D072B6FEE7002700E099
S11330B00027454DA847A36B002B2BD0E768201CA5
S11330C00099424B9847002E14D1A36B013BA36394
S11330D02368002B02D13E4B984760602369002B84
S11330E014D0201C10303B4B984701280ED13A4B8A
S11330F098470BE0E760636A002B07D0201C24305C
S1133100344B9847002801D0334B9847334B9847AA
S1133110012052E0019B002B03D1304B9847002043
S11331204BE0002F03D102A82D4B984701372B4BBE
S113313098472C4B9847244B9847636C013301D133
S113314000236364A36C013301D10023A364234BE4
S1133150984702A801A9244B9847002827D11A4B65
S11331609847A36B99461D4B98474B46002B18D1A3
S11331702368002B06D1144B984760681B4B984773
S1133180164B9847201C24300199194B9847201C52
S1133190184B9847184B984700288BD10E4B9847EB
S11331A088E7201C134B9847134B984782E7201C51
S11331B0104B9847104B9847002004B004BC91462C
S11331C0F0BDC046293C0000CD290000452C00007C
S11331D01D3C0000F93A0000B5290000E529000073
S11331E0813B0000CD350000A13B0000493C0000BC
S11331F0613A00006D2C00002137000038B5041C32
S11332000D1C0D4B9847636C013301D1002363649B
S1133210A36C013301D10023A364084B9847A36B2B
S1133220002B04D1201C2430291C054B9847201C5A
S1133230044B984738BDC046CD290000E52900005D
S1133240B93A00006D2C0000002801D172B6FEE7E7
S11332500021074A4369934207D1836A054A93428E
S113326002D05942594100E00021081C7047C04671
S1133270FC3F0020D43F0020084B1B681B68002B38
S113328004D101225242064B1A6006E0034B1B682C
S1133290DB68DB685A68024B1A607047203F0020E5
S11332A01C00002010B5041E0E4B1B6858600E4B0A
S11332B01B689C4207D20D4B18680A4B19680431ED
S11332C00B4B98470CE00B4B1868064B19680431FC
S11332D0074B9847084B1B689C4201D2064B1C6065
S11332E010BDC046D03F0020EC3F0020F03F00203E
S11332F009290000203F00201C000020F0B54F46A3
S11333004646C0B485B00C9C002801D172B6FEE7D5
S1133310042C01D972B6FEE70393161C0D1C02900F
S113332040205A4B9847071E00D1A8E00E9B002B63
S113333000D0A1E0B000554B98473863002803D172
S1133340381C534B98479AE0524BF3189B003A6B46
S1133350944663440722934398462A783423FA54C4
S11333602B78002B0DD0691C3B1C35333A1C3C32A6
S1133370087818700878002803D00131013393428B
S1133380F6D100223B23FA54251E042D00D904252E
S1133390FD62FD633B1D0193181C3F4EB047381C72
S11333A01830B0473F6105235B1BBB617F62404619
S11333B00299039A394B984738600D9B002B00D033
S11333C01F60374B9847374A136801331360364BF5
S11333D01B68002B22D1344B1F601368012B28D1AA
S11333E0324D63339946A944314E281CB0471435F5
S11333F04D45FAD12F4B9946181C2D4DA8472E4EFA
S1133400301CA8472D48A8472D48A8472D48A84751
S11334102D4B4A461A602D4B1E600AE02C4B1B684C
S1133420002B06D1204B1B68DB6A9C4201D31E4B48
S11334301F60284A136801331360FB6A264A126826
S1133440934201D9244A13609800C3189B0017487B
S1133450C0180199214B9847214B98471C4B1B6876
S11334600120002B0DD0104B1B68DB6A9C4208D94D
S11334701C4B9847012004E00E9B036364E7012082
S1133480404205B00CBC90469946F0BD052B0000A7
S11334906D2B0000FFFFFF3FE92800009129000089
S11334A0CD290000F83F0020D03F0020583F0020E5
S11334B0D12800002C3F0020403F0020D43F0020B2
S11334C0BC3F0020FC3F0020203F0020F03F0020B4
S11334D0243F0020F43F002010400020F128000089
S11334E0E5290000B529000038B5002801D172B6DD
S11334F0FEE7154B1B68984224D0051C134B9847D4
S1133500281C134B984701281AD12C1D201C114B41
S11335109847EB6A104A1268934201D90E4A136025
S11335209800C3189B000D48C018211C0C4B9847E9
S1133530054B1B68EA6ADB6A9A4201D3094B984738
S1133540094B984738BDC046D03F0020CD29000024
S1133550493200003929000010400020583F002063
S1133560F1280000B5290000E529000010B584B059
S1133570002300930193029303930D480D496422A1
S11335800D4CA04701280DD10C4B9847012809D1B7
S113359072B601220A4B1A6000220A4B1A600A4BC7
S11335A0984703E0002801D172B6FEE704B010BDCD
S11335B075380000744F0000FD320000D93D000052
S11335C0243F0020EC3F0020C52A0000024A136873
S11335D0013313607047C046E83F002010B5044B28
S11335E09847044B1C68044B9847201C10BDC046E8
S11335F0CD290000EC3F0020E5290000F0B583B0A0
S1133600394B1B68002B62D1384B1A6801321A609F
S11336101C68002C12D1364B1B681B68002B01D090
S113362072B6FEE7324A1168324B186810601960AE
S1133630314A136801331360304B9847304B1B6891
S113364000269C4237D30026294D2B681B68002B8B
S113365004D1012252422A4B1A602CE0244B1B68ED
S1133660DB68DF687B689C4202D2254A136022E053
S11336703B1D0193181C234B9847BB6A002B03D0B6
S1133680381C18301F4B9847FB6A1F4A1268934234
S113369001D91D4A13609800C3189B001B48C01829
S11336A001991B4B98471B4B1B68FA6ADB6A9A42C9
S11336B0CBD30126C9E7174B1B68DB6A9A00D318E2
S11336C09B00124A9B58012B06D9012604E0124A9A
S11336D01368013313600026104B1B68002B00D0C5
S11336E00126301C03B0F0BDE83F0020EC3F002071
S11336F0203F0020F03F00201C3F002079320000D2
S11337001C0000203929000010400020583F0020F0
S1133710F1280000D03F0020543F00201440002036
S1133720F8B52F4B1B68002B01D172B6FEE72D4B69
S113373098472B4B1A68013A1A601B680024002B27
S11337404AD1294B1B68002B23D145E0FB68DE6876
S1133750301C1830254B9847351D281C234B98479F
S1133760F36A234A1268934201D9214A13609800EC
S1133770C3189B001F48C018291C1F4B98471F4B98
S11337801B68F26ADB6A9A4205D301221C4B1A6059
S113379001E01C4C271C2368002BD7D11A4B1B6853
S11337A0002B11D0184B1B68002B0DD0174E144D55
S11337B0154CB047002801D001232B602368013B3E
S11337C023602368002BF4D10D4B1B680024012BCC
S11337D002D10F4B984701340E4B9847201CF8BD7B
S11337E0E83F0020CD290000F83F002039290000DF
S11337F010400020583F0020F1280000D03F002056
S113380014400020D43F0020543F0020FD35000028
S1133810B5290000E529000010B5041E16D00D4B93
S11338201B68002B01D072B6FEE70B4B98470B4B7D
S11338301B68E4180A4B186804300A4B9847201C8C
S1133840094B9847094B9847002801D1084B9847E2
S113385010BDC046E83F0020CD350000EC3F0020FD
S1133860D03F002039290000A53200002137000094
S1133870B5290000F0B5474680B4164D164F174ED3
S11338801DE0B8473468164B9847002C17D0154BE9
S11338909847124BDB68DC68201D134B9847134A8A
S11338A01368013B13600B4A1368013B1360104B10
S11338B09847206B0F4B98469847201CC0472B68AD
S11338C0002BDED10C4B1B68012BF8D90B4B98470E
S11338D0F5E7C046283F0020CD350000BC3F00205E
S11338E021370000CD29000039290000F83F0020CD
S11338F0E52900006D2B0000583F0020B529000089
S113390010B5254B1B68002B03D00122234B1A60F2
S113391041E00022214B1A60214B1B689A00D31806
S11339209B00204A9B58002B16D11D4B1B68002B73
S113393006D01B4A1B4C101C04E00368002B01D169
S113394072B6FEE71368013B136013689900CB1845
S11339509B001B59002BF0D0114B1B68114C9A0093
S1133960D11889006118486840684860D2189200EC
S11339700832A218904205D141689A00D2189200E8
S1133980A21851609A00D3189B00064AD3185B68AA
S1133990DA68054B1A6010BDE83F0020144000208F
S11339A010400020583F0020D03F002038B5041CB0
S11339B01F4B9847002C01D11E4B1C68251D281C49
S11339C01D4B9847A36A002B03D0201C18301A4BB8
S11339D098471A48291C1A4B98471A4B9847154B75
S11339E01B689C4219D1184B1B68002B08D0174B3D
S11339F01B68002B01D072B6FEE7154B984716E002
S1133A00144B1B680D4A12689A4203D10022094BD9
S1133A101A600CE0104B984709E00B4B1B68002B15
S1133A2005D0034B98470D4B9847064B984738BD34
S1133A30CD290000D03F002039290000FC3F0020A0
S1133A40F1280000E5290000243F0020E83F002081
S1133A50B5290000F83F0020013900007932000048
S1133A6038B5002801D172B6FEE70C1C0B4D29684D
S1133A7018310B4B9847286804300A4B9847631C4D
S1133A8006D1064B196804310748084B984704E0EF
S1133A90074B18682018074B984738BDD03F0020C3
S1133AA00929000039290000FC3F0020F12800000A
S1133AB0EC3F0020A532000038B5002801D172B6D1
S1133AC0FEE70C1C074D29681831074B98472868F6
S1133AD00430064B9847064B18682018054B984746
S1133AE038BDC046D03F0020F1280000392900002D
S1133AF0EC3F0020A532000038B5C368DD68002D16
S1133B0001D172B6FEE72C1C1834201C144B9847C4
S1133B10144B1B68002B13D12C1D201C104B9847F1
S1133B20EB6A114A1268934201D90F4A1360980054
S1133B30C3189B000D48C018211C0D4B984703E087
S1133B400C48211C0A4B98470B4B1B68EA6ADB6A3A
S1133B5000209A4203D90122084B1A60013038BD73
S1133B6039290000E83F002010400020583F002081
S1133B70F1280000D43F0020D03F00201440002052
S1133B80002801D172B6FEE7034B1B680360034BA8
S1133B901B6843607047C0461C3F0020EC3F002078
S1133BA070B5002801D172B6FEE7002901D172B6C2
S1133BB0FEE70D1C041C114B9847114B19682B6828
S1133BC05A1C15D00F4A12682068904203D001266F
S1133BD0626891420DD26268881A0126834208D92C
S1133BE0521AD3182B60201C074B9847002600E07C
S1133BF00026064B9847301C70BDC046CD290000F6
S1133C00EC3F00201C3F0020813B0000E529000020
S1133C100122014B1A60704714400020014B1868C0
S1133C207047C046D03F0020054B1B680120002B85
S1133C3004D0044B18684342584140007047C046C2
S1133C40243F0020E83F002038B5002832D0C36A62
S1133C50194A1268D26A93422CD28269002A05DB7F
S1133C60154A1268D16A0522521A82619A00D31841
S1133C709B00124AD31842699A4217D1051C041DAD
S1133C80201C0F4B98470C4B1B68DB6AEB620D4AF8
S1133C901268934201D90B4A13609800C01883003C
S1133CA00648C018211C084B984703E0024B1B68C8
S1133CB0DB6AC36238BDC046D03F0020583F0020B5
S1133CC03929000010400020F128000038B50028F0
S1133CD01ED0C36AC26B93421AD0041C051D281C53
S1133CE00C4B9847E36BE362A269002A02DB0522CE
S1133CF0D21AA261084A1268934201D9064A136093
S1133D009800C01883000548C018291C044B984724
S1133D1038BDC0463929000010400020583F00201B
S1133D20F128000010B54160006191420CD8D21A0C
S1133D30012483699A4213D20A4B1B68011D181C83
S1133D40094B984700240BE09A4202D2012499427D
S1133D5006D2064B1B68011D181C034B9847002410
S1133D60201C10BD4C4000200929000018400020F0
S1133D7070B5104B9847104B1B68002B16D10F4D94
S1133D80281C0F4EB0470F4C201CB0470E4B1D6033
S1133D900E4B1C6002200C2100220D4B984700287A
S1133DA002D0054B186001E072B6FEE7094B984754
S1133DB070BDC046CD290000484000201C400020B2
S1133DC0D128000030400020184000204C40002042
S1133DD0912D0000E529000010B584B00B4B9847E5
S1133DE00B4B1B68002B0CD0022300930023019380
S1133DF002930393074808495022084CA04700281F
S1133E0001D172B6FEE704B010BDC046713D00009A
S1133E1048400020413F0000A44F0000FD32000054
S1133E2010B584B0134C2468002C1FD00191029269
S1133E300390052913DC104B9847022807D10D4B3A
S1133E40186801A9069A00230C4CA0470FE0094BFF
S1133E50186801A900220023084CA04707E0201C91
S1133E6001A91A1C0023064CA04700E0002004B05E
S1133E7010BDC04648400020293C0000E52D00004C
S1133E80AD2F0000F0B557464E464546E0B482B02B
S1133E908146244B98478046234B1B68984233D273
S1133EA023E0DB681A689246DC68251D281CB847A5
S1133EB0201C636A9847E369012B18D1A369534412
S1133EC0534507D963602461184B1868291C184BA3
S1133ED098470CE000230093201C00215246154C07
S1133EE0A047002803D172B6FEE7104E124F336884
S1133EF01A68002AD5D1114A0C4910680860136069
S1133F0001234A46136002E000234A461360064B2D
S1133F1042461A60404602B01CBC90469946A246EE
S1133F20F0BDC046DD3500004440002018400020AC
S1133F3009290000213E0000392900004C400020DE
S1133F40F0B557464E464546E0B488B0524B9A46C3
S1133F50524B9946524B984653461B681A68002A9E
S1133F6000D18FE0DB681D684C4B984705A84C4B8B
S1133F709847041C059B002B31D1854223D8494B1B
S1133F809847454B1B68DB68DE68301D464B9847F5
S1133F90F369012B13D1B369E918301C221C2B1CC3
S1133FA0424CA04701280AD100230093301C002171
S1133FB02A1C3F4CA047002801D172B6FEE7736A61
S1133FC0301C98470DE03B4B1868291B3A4B984727
S1133FD0344B9847002804D1384B984701E0314BC3
S1133FE09847344D364C45E0059B0393002B41DB49
S1133FF0079E7369002B02D0301D2B4B984704A8F1
S1134000274B9847031C059A092A33D892002D4957
S11340108A589746069AB06984466244111C301C3B
S11340201A1C069B214FB847012823D1301C736A00
S11340309847F369012B1DD1B36906998C466344F3
S11340401A1C00230093301C0021194EB04700288D
S113405010D172B6FEE70699B161002901D172B69A
S1134060FEE74118301C1A1C104EB04702E0301C09
S1134070154B9847286805A900220023A04700286B
S1134080B2D169E7C84705A8C047041C0025059BB1
S1134090002B98D0A3E7C04618400020CD3500007F
S11340A0853E00002137000039290000253D00002D
S11340B0213E000048400020FD310000B5290000E9
S11340C0753000007C4F00006D2B000030B583B0CC
S11340D0184A138A1BB2002BFBDB164B9C7BE4B201
S11340E0630724D5134B1B8ADBB25A0705D006227B
S11340F01A421CD00F4B1A8219E00E4B1B8B6A46D6
S1134100911DDB05DB0D0B800B4B1868002200238F
S11341100A4DA84700280AD0E30704D40549012220
S11341208B7B1342FCD06B469A79024B1A8303B003
S113413030BDC04600140042E0400020AD2F000016
S1134140F0B55F4656464D464446F0B483B000266B
S11341502E4B9A4680235B0101932D4B9B4653467D
S1134160019A5A615B4618680021012252420023D9
S1134170284CA047284B1D7816235D43274B5D1917
S1134180AC19274B9846234F234B994626E02378B6
S11341900A2B21D00D2B0ED1002323701E4B1C782B
S11341A00134032214401C7016235C431B4B1C195E
S11341B0251C002610E00136F6B2142E0BD94B460E
S11341C01D78013503231D404B461D7016235D43A6
S11341D0124B5D190026AC1900232370434618685E
S11341E0211C00220023B8470028D0D1084B1868AE
S11341F00021002200230B4CA04753468022520189
S11342009A610220084B9847A9E7C0460044004140
S1134210D040002075300000D940002050400020DC
S1134220E0400020E52D000019380000F0B55F469D
S113423056464D464446F0B485B00123029380238C
S11342409B0103932E4B039A5A612E4B186800214D
S11342500122524200232C4CA047029A171C082327
S11342609B1A9A0193469A00D21852009146994497
S11342700025264B9A46264B9846EEB25346EB5CF5
S11342800193301C1521234A9047C9B24B005B1897
S11342905B007B435B44DC17640FE318DB10DCB288
S11342A0301C1521C047C0B2C300181A78434844D3
S11342B0C217520F1218D010C2B20198211C164B0B
S11342C0164CA04701353F2DD7D10E4B186800215D
S11342D000220023124CA047094B802292019A61CC
S11342E0029B072B06D80133DBB2029306200D4B49
S11342F09847A7E700200C4B984700230293A1E7B7
S113430000440041CC40002075300000C84F00003C
S1134310A94A0000B54B0000080000201D0C000055
S1134320E52D000019380000AD390000F0B55F46F6
S113433056464D464446F0B485B0314B1D780026B0
S1134340304B984680235B0199469B462E4B9A46F8
S113435043465A465A612A4B1C7853235B425C43BA
S11343600134E4B2264B1C7064196410E5B2534660
S113437018680021012252420023244FB847FF232A
S11343801C4063001B19DB001C1BE3171B0E1C19CC
S113439024122034E4B2301C2021172200231C4FA5
S11343A0B847002E0DD10020211C0122194B98473B
S11343B0154B1868002100220023174EB047012630
S11343C015E0701EC0B2012300930399321C231C14
S11343D0124FB8470C4B18680021002200230E4FDF
S11343E0B8470136F6B273B2DB43DB171E404346CF
S11343F04A469A610A200A4B98470394A8E7C046A4
S11344002000002000440041CC4000207530000012
S1134410090A0000D10D0000E52D0000A10A0000EA
S113442019380000F0B557464E464546E0B484B00E
S113443080239B019846324B42465A6101246442D0
S1134440304B18680021221C00232F4DA8472F4B06
S113445018680021221C00232B4CA0472C4B1B78EE
S11344609946102303934F4616237B43294A985CAD
S1134470002815D000240025274B9A46161C291C19
S1134480039A264BD0470635EDB20134E4B2162325
S11344907B431B19985D0028F1D1142C0ED801E040
S11344A000250024A200A21A5200803AD2B20023AE
S11344B00093281C03990733194CA047039E083E18
S11344C0F3B2191C03934A46033203231A4091465C
S11344D0F829C8D10D4B1868002100220023114C83
S11344E0A047084B1868002100220023A047044B72
S11344F0802292019A61C8200B4B98479BE7C046E3
S113450000440041CC40002075300000D040002021
S1134510D9400020504000201D0C0000080000205D
S1134520E90B0000E52D000019380000F0B583B058
S1134530684623490522234B9847234F234E244D95
S113454038680021012252420023B0472B78002B07
S11345500FD1204B98478022D2011F4BDA61684665
S113456005211E4B98471E4B98470122184B1A7081
S11345701BE0012B05D11B4B98470222144B1A70E8
S113458013E0194B98470E2804D180221202124BD3
S11345909A6107E0802212020F4B5A6113480521E9
S11345A0134B984700220A4B1A70074B18680021D6
S11345B0002200230F4CA04728200F4B9847BFE749
S11345C0AC4F00006D4C0000CC4000207530000062
S11345D0D84000202104000000440041C10500002F
S11345E03D030000C50300001D030000E44000205B
S11345F079050000E52D000019380000F0B55F468C
S113460056464D464446F0B485B0002399460027EB
S1134610012200245B4E80231B025B498A464946E3
S1134620039199464B467361336ADB0003D4002F30
S113463000D085E091E0336A5B0703D4042F00D0F7
S113464080E08EE0336A1B0701D4022F7CD1002A5C
S11346506ED05346186800210122524200234B4D6C
S1134660A847039B002B02D0181C494B9847002FE6
S113467009D0012F03D1474B1B6803936AE0464BD3
S11346801B68039366E0002C6FD120239846002317
S113469003930023009300204146802220333F4CA3
S11346A0A04741461731C9B20020802201233C4C67
S11346B0A04744461834E4B22A20211C08220123CE
S11346C0384DA8475520211C08220123A8472B2038
S11346D07843C0B201230093211C2A220733324CB1
S11346E0A04743461933DBB20293304D0624304BC6
S11346F09B46281C211C029A2E4BD8472B34E4B22B
S11347000635872CF5D1402043460343181C2A4B19
S113471098471D4B1868002100220023274CA0470E
S11347200398002803D0264B9847012400E0012475
S113473080231B02B3611420224B9847002271E7A7
S1134740002786E7042784E7022782E7042780E717
S113475002277EE7002398469BE7336A5B07F5D57B
S113476070E7336A1B07F3D571E76020124B984753
S1134770054B1868002100220023104DA847002390
S11347800393D5E700440041CC400020753000007D
S1134790AD390000D4400020DC400020E90B0000CB
S11347A029090000090A0000990B0000B44F000019
S11347B0DD0C00000800002045060000E52D000087
S11347C0E934000019380000F0B5474680B490B0D1
S11347D004AC0025A570754B802252019A61802299
S11347E092019A61802212029A61022323706570F9
S11347F00C20211C6E4EB0470D20211CB0470F2009
S1134800211CB0472570012767701C20211CB0476C
S11348100220211CB0470320211CB0478023DB0564
S113482004936560FF232381A572E57296239B019F
S1134830236127756775A575E575A5612577657786
S1134840C4239B03E36001235B4223626362594BED
S1134850A362594BE362594E594D5A4C301C291CE2
S113486004AAA0470028F9D15548574B98475749FF
S1134870574B9847514D2C68201C564B98471F2383
S113488018401E3B8340181C534B18602A68138A37
S1134890DB0BDB039BB2002BF9D1226802331343F9
S11348A02360464B1A68138ADB0BDB039BB2002B95
S11348B0F9D15368802149020B43536001213F4BD6
S11348C0D971138ADB0BDB039BB2002BF9D1138A5A
S11348D0DB0BDB039BB2002BF9D1536880218902E7
S11348E00B4353600121354B9971138ADB0BDB03B6
S11348F09BB2002BF9D10422314B5A730120374C5F
S1134900A047374B18600120A047364B1860402061
S113491001210022344B9847344B1860012600963D
S1134920334B98460193002402940394314832494E
S113493064220023314DA847009601940294039405
S11349402F48304964220023A8470223009301948E
S1134950029403942C482D4964220023A84700960E
S11349602B4F0197029403942A482B496422002375
S1134970A8470323009301940294039427482849E9
S113498064220023A84700960194029403942548C6
S1134990254964220023A84743461868234CA047AE
S11349A03868A04710B004BC9046F0BD00440041F4
S11349B03D0F00000200180002001900A84000206A
S11349C000140042C11C000025130000CD4000006B
S11349D065130000A113000000E100E0552F000062
S11349E0CC400020D0400020912D0000E040002069
S11349F0DC4000202D42000008500000FD32000081
S1134A002D43000010500000FD4500001850000028
S1134A10D440002025440000205000004141000003
S1134A20285000002D45000030500000AD39000032
S1134A3070B5144B9847144B9847144B984764200F
S1134A40134EB047134C8025ED01E5616420B04757
S1134A50E5616420B047E5616420B047E561642006
S1134A60B047E5616420B047E56180235B03A3613F
S1134A70094B9847094B9847094B9847094B984766
S1134A80FEE7C046F9270000810D00004D0100003B
S1134A90D108000000440041210400007904000012
S1134AA0C94700006D350000002243088B4274D3CF
S1134AB003098B425FD3030A8B4244D3030B8B421B
S1134AC028D3030C8B420DD3FF22090212BA030C24
S1134AD08B4202D31212090265D0030B8B4219D305
S1134AE000E0090AC30B8B4201D3CB03C01A524125
S1134AF0830B8B4201D38B03C01A5241430B8B426D
S1134B0001D34B03C01A5241030B8B4201D30B0355
S1134B10C01A5241C30A8B4201D3CB02C01A52417C
S1134B20830A8B4201D38B02C01A5241430A8B423F
S1134B3001D34B02C01A5241030A8B4201D30B0228
S1134B40C01A5241CDD2C3098B4201D3CB01C01A42
S1134B50524183098B4201D38B01C01A524143094C
S1134B608B4201D34B01C01A524103098B4201D33A
S1134B700B01C01A5241C3088B4201D3CB00C01AA7
S1134B80524183088B4201D38B00C01A524143081F
S1134B908B4201D34B00C01A5241411A00D2014644
S1134BA0524110467047FFE701B5002000F00CF8B1
S1134BB002BDC0460029F7D003B5FFF775FF0EBC50
S1134BC04243891A1847C0467047C046F0B54F465D
S1134BD0464605042D0C2C1CC0B41704160C3F0CBF
S1134BE09946030C7C4375435F4373437D19260C3C
S1134BF0AD199C46AF4203D980235B029846C44456
S1134C004B465143434324042E0C240C2D04664488
S1134C102C1959188919201C0CBC90469946F0BDD2
S1134C200E4B70B500251E1C0D4CE41AA410A542B1
S1134C3004D0AB00F35898470135F8E700F0FAF9CF
S1134C40084B00251E1C084CE41AA410A54204D0ED
S1134C50AB00F35898470135F8E770BD40500000A9
S1134C60405000004050000044500000002310B5A4
S1134C70934203D0CC5CC4540133F9E710BD000067
S1134C8000000000000000202020202000205050C0
S1134C9050000000005050F850F850502078A07098
S1134CA028F020C0C810204098186090A040A89018
S1134CB06860204000000000102040404020104068
S1134CC0201010102040005020F820500000202018
S1134CD0F820200000000000602040000000F800E0
S1134CE00000000000000060600008102040800008
S1134CF0708898A8C8887020602020202070708850
S1134D0008102040F8F810201008887010305090D7
S1134D10F81010F880F008088870304080F0888817
S1134D2070F808102040404070888870888870703F
S1134D30888878081060006060006060000060602F
S1134D4000602040081020402010080000F800F8FF
S1134D50000080402010204080708808102000202F
S1134D6070880868A8A87070888888F88888F0888F
S1134D7088F08888F070888080808870E0908888C7
S1134D808890E0F88080F08080F8F88080E080806F
S1134D908070888080988870888888F8888888706F
S1134DA0202020202070381010101090608890A0CF
S1134DB0C0A09088808080808080F888D8A8888867
S1134DC088888888C8A8988888708888888888701F
S1134DD0F08888F080808070888888A89068F0883F
S1134DE088F0A09088788080700808F0F82020204F
S1134DF020202088888888888870888888888850B7
S1134E0020888888A8A8D8888888502050888888CE
S1134E10885020202020F80810204080F8382020D6
S1134E202020203800804020100800E0202020208E
S1134E3020E020508800000000000000000000F87E
S1134E4040201000000000000070087888788080FE
S1134E50B0C88888F000007080808870080868985E
S1134E6088887800007088F88070304840E04040BE
S1134E7040000078887808308080B0C8888888200E
S1134E8000602020207010003010109060404048D6
S1134E9050605048602020202020700000D0A8A836
S1134EA088880000B0C88888880000708888887066
S1134EB00000F088F08080000068987808080000FE
S1134EC0B0C8808080000070807008F04040E040EE
S1134ED04048300000888888986800008888885096
S1134EE02000008888A8A85000008850205088001E
S1134EF00088887808700000F8102040F8102020FE
S1134F00402020102020202020202040202010207D
S1134F102040000000080042000C00420010004243
S1134F200014004200180042001C00420708090A4D
S1134F300B0C00005E2000005A2000005A200000E4
S1134F40A8200000A82000007420000064200000B5
S1134F507A200000B4220000942200009422000071
S1134F6004230000A6220000C222000098220000B0
S1134F70D022000049444C450000000014400000C9
S1134F80144000001440000074400000564000002B
S1134F906E40000014400000144000007440000003
S1134FA056400000546D7220537663004A555354A2
S1134FB0490000004772617068005465726D2E00EC
S1134FC041626F75740000004672656552544F5318
S1134FD02056382E302E312064656D6F2E2020200F
S1134FE020202020202020202020202020202020BD
S1134FF020205573652043444320617420392E36A4
S1135000206B426175642E0041626F75740000006C
S113501047726170680000004D61696E0000000015
S11350205465726D2E00000055415254000000007A
S11350304E524600F8B5C046F8BC08BC9E467047C0
S1135040CD000000F8B5C046F8BC08BC9E467047C9
S1075050A5000000B3
S113505408000000401F000000000000804C000015
S11350640607207D01000000AAAAAAAAFFFFFFFFE9
S107507480000000B4
S9032829AB
